:020000040800F2
:100000005824002025030008373B0008ED3800087D
:10001000353B0008A71D00080D5E00080000000029
:10002000000000000000000000000000FD3C00088F
:10003000211E000800000000B33C0008FF3C00083F
:100040003F0300083F0300083F0300083F03000888
:100050003F0300083F0300083F0300083F03000878
:100060003F0300083F0300083F0300083F03000868
:100070003F0300083F0300083F0300083F03000858
:100080003F0300083F0300083F0300083F03000848
:100090003F0300083F0300083F0300083F03000838
:1000A0003F0300083F0300083F0300083F03000828
:1000B0003F0300083F0300083F0300083F03000818
:1000C0003F0300083F0300083F0300083F03000808
:1000D0003F0300083F0300083F0300083F030008F8
:1000E0003F0300083F0300083F0300083F030008E8
:1000F0003F0300083F0300083F0300083F030008D8
:100100003F0300083F0300083F0300083F030008C7
:100110003F0300083F0300083F0300083F030008B7
:100120003F0300083F0300083F0300083F030008A7
:100130003F0300083F0300083F0300083F03000897
:100140003F0300083F0300083F030008393B000855
:100150003F0300083F0300083F0300083F03000877
:100160003F0300083F0300083F0300083F03000867
:100170003F0300083F0300080000000000000000EB
:100180003F0300083F0300083F0300083F03000847
:100190003F0300083F030008000000003F03000881
:1001A0003F0300083F0300080000000000000000BB
:1001B0003F03000800000000000000003F030008AB
:1001C0003F0300083F0300083F0300083F03000807
:1001D0003F0300083F03000800F002F800F092F827
:1001E0000AA090E8000C82448344AAF10107DA4592
:1001F00001D100F087F8AFF2090EBAE80F0013F052
:10020000010F18BFFB1A43F001031847605E00009E
:10021000805E0000103A24BF78C878C1FAD852072F
:1002200024BF30C830C144BF04680C607047000070
:100230000023002400250026103A28BF78C1FBD8EF
:10024000520728BF30C148BF0B6070476E2900F0CD
:100250001582702900F05F83662905F0788665298C
:1002600005F07586672905F07286612905F07186AB
:1002700003681B0A28BF41F08001692900F0C28190
:10028000642900F0BF81752900F0BC816F2900F05E
:10029000EC82782900F02B83E92900F08782E42999
:1002A00000F08482F52900F08182EF2900F0E982D4
:1002B000F82900F02A830368DB0928BF41F0800198
:1002C000632901F02D80732901F03280E32901F0C8
:1002D0003D80F32901F04280002070471FB505F0F2
:1002E00031FE01F091F804000020002105F014FE19
:1002F000401C60600020002105F0F8FDE0601FBD9B
:1003000010B510BD01F052F81146FFF7E7FF05F0F8
:10031000ADFD01F02FF903B4FFF7F2FF03BC01F0CC
:1003200073F900000948804709480047FEE7FEE7E7
:10033000FEE7FEE7FEE7FEE7FEE7FEE7FEE7FEE795
:1003400004480549054A064B70470000993D0008DE
:10035000D9010008581E00205824002058200020F1
:100360005820002053EA020C00F069802DE9F04B80
:100370004FF00006002B1FBFB3FA83F503FA05F414
:1003800024FA05F65E4012BF1643B2FA82F502FA6D
:1003900005F4C5F120051EBF22FA05FC44EA0C0451
:1003A000203556EA044C4FEA144418BF641C4FF041
:1003B00000084FF00009904271EB030C39D300297B
:1003C00019BFB1FA81F701FA07F6B0FA80F700FA1F
:1003D00007F6C7F120071EBF20FA07FC46EA0C0605
:1003E0002037B6FBF4FCA7EB0507103F07F01F0B07
:1003F000CBF120060CFA0BFB2CFA06F644BFB346F1
:100400000026202FA4BF5E464FF0000B5BEA060CCF
:1004100008BF4FF0010B19EB0B09ABFB027C48EB5B
:100420000608C01B06FB02CC0BFB03CC71EB0C01D6
:10043000C1E70B46024641464846BDE8F08B13B57E
:100440004FF000004FF00001AFF30080BDE81C400A
:10045000704700007CB51D4616460C00009001D088
:100460002044401E074B7B442A4669460190304693
:1004700000F01DF905461CB10020694600F02AF97C
:1004800028467CBD7502000010B5203AC0F00B80F4
:10049000B1E81850203AA0E81850B1E81850A0E888
:1004A0001850BFF4F5AF5FEA027C24BFB1E81850E2
:1004B000A0E8185044BF18C918C0BDE810405FEA52
:1004C000827C24BF51F8043B40F8043B08BF7047CE
:1004D000D20728BF31F8023B48BF11F8012B28BFD3
:1004E00020F8023B48BF00F8012B70474FF0000294
:1004F00000B5134694469646203922BFA0E80C501A
:10050000A0E80C50B1F12001BFF4F7AF090728BFF4
:10051000A0E80C5048BF0CC05DF804EB890028BF70
:1005200040F8042B08BF704748BF20F8022B11F099
:10053000804F18BF00F8012B704770477047704715
:1005400070B5044685690068C10601D5302600E013
:100550002026C00707D070BDD4E90121304690475E
:10056000206A401C20626D1EF6D570BD70B5044631
:1005700085690078C00707D170BDD4E9012120202A
:100580009047206A401C20626D1EF6D570BD096838
:100590004A0501D540B27047C905FCD500B2704785
:1005A00009684A0501D5C0B27047C905FCD580B2BB
:1005B000704770B50C460546012A05D0287880069C
:1005C00000D5EA69002302E0012305E05B1C9342A9
:1005D00002D2E05C0028F9D1A869E618C01AA86127
:1005E000286A184428622846FFF7AAFF04E0D5E9E4
:1005F000012114F8010B9047B442F8D32846FFF7C5
:10060000B5FF70BD2DE9F04106460024106875293C
:10061000314616A510D0FFF7BAFF002802DA404293
:1006200013A507E031688A0701D512A502E0490742
:1006300004D511A5012401E0FFF7B2FF00210A2231
:1006400006F1240709E0B0FBF2FCB0FBF2F302FB79
:100650001C00303078541846491C0028F3D123463A
:100660002A463046BDE8F04100F069BA00000000BB
:100670002D0000002B00000020000000116802681F
:10068000006A530501D508700AE0D30501D508803A
:1006900006E0130603D5C217C1E9000200E00860B6
:1006A0000120704701694A1C02610878704700B553
:1006B0008FB0CDE901310021059105497944CDE99B
:1006C00003101146684600F031F90FB000BD00007C
:1006D000E5FFFFFF0A6802F8010B0A607047D1E9E5
:1006E00000239A4202D2531C0B6010707047000026
:1006F0002DE9FF5F15468A460446DFF8AC80F844D2
:100700000027D8E900103E46CDE9001010E03AF885
:1007100016106A4602A800F025FE411C07D0217879
:10072000890603D5E269391891420DD80744761C31
:100730002078800602D5E069B84205DDAE42E6DBEE
:100740003AF816000028E2D1A069C01BA06120463B
:10075000FFF7F6FED8E90010CDE90010002017E001
:100760003AF818106A4602A800F0FCFDB0F1FF3F0D
:1007700081460BD000250DF1080B05E0D4E90121DD
:100780001BF8050090476D1C4D45F7D308F101009B
:10079000B0428046E4DB206A384420622046FFF7FE
:1007A000E5FEBDE8FF9F00006E5800002DE9F04116
:1007B0008046D21D22F007020025D2E90002F52969
:1007C00015A614D0011E72F1000106DA0023D0EB49
:1007D000030063EB020211A608E0D8F800108B07B3
:1007E00001D50FA602E0490701D50EA60125114645
:1007F000002408F1240704E000F05CF930323A5597
:10080000641C50EA0102F7D12B463246214640468D
:10081000BDE8F04100F093B9000000002D00000099
:100820002B0000002000000030B4002100F124045F
:1008300008E002F00705D208303542EA4372DB08CF
:100840006554491C52EA0305F3D10468002310A241
:10085000250707D5A40600D421B1C46901230DA240
:10086000641EC46130BC00F06AB910B5044621466C
:100870001068FFF795FE02462046BDE810400023B1
:10088000D2E7D21D22F00701D1E90023CCE7000016
:100890000000000030000000F0B40D46018809059A
:1008A00002D5214C7C4402E01F4C7C440E340021D4
:1008B00000F1240608E002F00F071209E75D42EAA2
:1008C00003721B097754491C52EA0307F3D10278DB
:1008D0000023120704D5702D06D009B1022311346C
:1008E0002246F0BC00F02BB901231034F8E770B5B4
:1008F00004460D4621461068FFF752FE024629467F
:100900002046BDE870400023C6E7D21D22F0070351
:10091000D3E90023C0E70368126843F020030360B3
:100920000823C3610023B7E7D05600002DE9F05F2C
:10093000894604464FF0000ADFF874B1FB44C0F862
:1009400020A02046E1688847002874D0252806D0DA
:10095000D4E901219047206A401C2062F1E700267B
:100960005F462046E16888472028054607DB312D91
:1009700005D2781910F8200C08B10643F1E7B0074A
:1009800001D526F00406C4F81CA00027C4F818A05E
:100990002A2D09D0284605F062FA38B304EB8708FF
:1009A000303DC8F8185019E059F8041B204604EBF4
:1009B00087029161E1688847012F054618D1E069F7
:1009C000002820DA26F020061DE0D8F8180000EBF9
:1009D000800005EB40003038C8F818002046E16878
:1009E0008847054605F03BFA0028EED1012F0AD0D2
:1009F0002E2D08D12046E16888477F1C0546022F2E
:100A000046F02006C4DBA069002803DA404246F025
:100A10000106A061F00701D026F010066C2D0BD066
:100A2000682D09D04C2D39D06A2D35D0742D35D094
:100A30007A2D33D016E038E0E1682F46204688470B
:100A4000B842054609D16C2F26D04FF48060E1688A
:100A5000064320468847054604E06C2F1AD04FF421
:100A6000807006430DB3A5F14100192802D8203546
:100A700046F400664A462946204626604E46FFF761
:100A8000E5FB80B101280BD0F61D26F0070000F130
:100A9000080956E74020E4E78020D8E70020D6E7A1
:100AA00006F104094DE7284652E7206ABDE8F09FA9
:100AB0006056000030B5B0F10A024FEA900E71F1B5
:100AC00000034EEA817EB0EB0E0061EB91014FEA2C
:100AD000101E4EEA017E10EB0E0041EB11114FEAA1
:100AE000102E4EEA016E10EB0E0041EB11214FEA81
:100AF000104E4EEA014E10EB0E0041EB1141401832
:100B000041F100014FEAD00040EA41704FEAD101C3
:100B100010EB80054FEA810444EA907444EB010431
:100B20006D1944EB0404521BA3414FF0000348BF6E
:100B30000A3200D530BD401C41F1000130BD2DE925
:100B4000F0470D4699469246044600F12408016894
:100B5000880604D5E06921F01001216000E0012041
:100B6000A84201DD471B00E00027A1697A1902EBCA
:100B70000900081AA0612078C00602D42046FFF7B9
:100B8000DFFC002608E0D4E901211AF806009047AE
:100B9000206A401C761C20624E45F4DB2078C0069B
:100BA0000AD52046FFF7CCFC06E0D4E9012130202D
:100BB0009047206A401C2062381EA7F10107F4DC30
:100BC00007E0D4E9012118F805009047206A401C8D
:100BD0002062281EA5F10105F3DC2046FFF7C6FCC4
:100BE0002078000602D50220BDE8F0870120FBE74F
:100BF00070472DE9FF4F0C461E464FF0FF378BB074
:100C0000D2E90001DDF860800A908A46C1F30A55F6
:100C100005B93D46002108464FF00000BAF1000F2B
:100C200000F4400005DA00EB80004FF4400101EAD7
:100C300050004FEA9059B9F1010F00DDB9460A980A
:100C400050EA4A000ED044F61050A5F2FF35454355
:100C50002F14B8F1000F1ED07542291E1EDDC9F1F8
:100C600000021CE0B8F1010F4FF0000001D030216C
:100C700003E0F24305E02154401CB042FBDB304668
:100C80000022002121540B99C1F80880C1E90020FD
:100C90000FB0BDE8F08FBD1B6D1CDEE74A4600DAE1
:100CA000694206A800F0F4FB06AB93E8070003AB2B
:100CB00083E8070050460A9900F0ADFC8DE8070074
:100CC000A0F500501F3800900398002D0ADD42F275
:100CD0001F014A460844002303A90390684600F018
:100CE00016FF09E0A0F500504A461F38002303A96B
:100CF0000390684600F020FF8DE807000004000C18
:100D000003D04FF0FF30410800E01046B8F1000F6B
:100D100003D00022009215461EE0751E05D4FFF791
:100D2000C9FE303262556D1EF9D5B3460122084323
:100D300002D000227F1C04E02078302801D100225C
:100D40007F1E002A099784D01DE0112D07DAFFF7D6
:100D5000B1FE303262556D1C50EA0102F5D10843F4
:100D600002D00098C8B10EE00021681E05E0235CA7
:100D7000625C63542254401E491C8142F7DBAB463F
:100D8000A81B401E0990002004F80B000B98099A3C
:100D9000C0F80880C0E9002B7AE711264FF0000860
:100DA00057E72DE9F04F88460446D21D22F007018F
:100DB00091B0D1E90001CDE90A0105F028F8024619
:100DC0000B98C00F01D02D2007E02068810701D5C6
:100DD0002B2002E0202101EAC000032A099001D063
:100DE000072A05DB03464146204600F011FB0BE1D4
:100DF0002078800601D5E06900E00620B8F1650F93
:100E0000814606D0B8F1660F18D0B8F1670F70D1DF
:100E100031E00020B9F1110F009001DB112301E056
:100E200009F101030AAA01A90CA8FFF7E2FEDDE916
:100E30000C70002609F10105834647E001204B466E
:100E400000904FF000470AAA01A90CA8FFF7D1FEB5
:100E5000DDE90DB00C995D46002610B909F10100DD
:100E60000D18B9EB050003D4C0F1FF3609F10105F7
:100E7000A5EB09002BE0B9F1010F01DA4FF00109F0
:100E80000020B9F1110F0090484601DD112300E068
:100E900003460AAA01A90CA8FFF7ABFEDDE90C7016
:100EA0004D4600268346207800070AD4AB4500DA79
:100EB0005D4601A8012D04DD411911F8011C3029FE
:100EC00007D04F4502DA17F1040F04DA01208246F9
:100ED0000FE06D1EEEE7002F02DCED1B3E4403E049
:100EE000781CA84200DD7D1CB81B00F1010A4FF000
:100EF00000472078000703D4AA4501DB4FF0FF3AF2
:100F00000021B7F1004F0DF143088DF8431024D0B4
:100F100002202B23002F01DA7F422D230A21021EFB
:100F2000A0F1010000DC5FB197FBF1FC97FBF1F24F
:100F300001FB1C7C17460CF1300C08F801CDEEE7E4
:100F4000A8F1010003702188090501D5452100E0C1
:100F50006521A0F1010800F8011C09980FA9A1EB77
:100F60000807FF1D00B10120411901EBEA70A169DA
:100F70003844081A401EA0612078C00602D42046DA
:100F8000FFF7DEFA099828B1D4E901219047206AD9
:100F9000401C20622078C00622D52046FFF7D0FAF8
:100FA0001EE0002E04DBB34502DD01A8805D00E0F9
:100FB0003020D4E901219047206A401C2062761C31
:100FC000AAF101005FEA000A0AD100F01DFAC06828
:100FD0000168405CD4E901219047206A401C2062EE
:100FE000281EA5F10105DCDC07E0D4E9012118F891
:100FF000010B9047206A401C2062381EA7F10107B0
:10100000F3DC2046FFF7B2FA032011B041E60000FE
:101010002DE9F04F04460D46D21D22F0070089B09D
:10102000D0E900974846394604F0F1FE0246F80F31
:1010300001D02D2307E02068810701D52B2302E092
:10104000202101EAC0038DF820300BB1012000E01F
:101050000020032A824601D0072A04DB29462046C5
:1010600000F0D6F93FE12078800601D40D2500E09C
:10107000E569C7F30A560D2D49DA00214FEA175BDF
:1010800008464FF00000002F00F4400007DA00EBA4
:1010900080004FF4400100EBD07001EA6000811540
:1010A000012901DD4FF0FF3100224FEA850CBCF130
:1010B000180F06D31346ACF118004FF08052C2400F
:1010C00003E04FF4801323FA0CF30CF10C0CBCF189
:1010D000200F04D3ACF1200C09FA0CF001E007FA60
:1010E0000CF000294FF0004801DD18B90FE00ED1D7
:1010F00040450CD319EB02095F4121B9404502D1AB
:101100009F4329EA0209BBEB175F00D0761C2088B9
:10111000000502D57B48784402E07A4878441938C3
:1011200008AA302302F80A30037C0AF10101002EDC
:101130000AF1020A53546A4602DC4FF0300101E022
:101140004FF031014FF001088DF8001002D0A6F2E7
:10115000FF3603E059EA470100D06B4E002D02DC58
:101160002178090704D54FF002082E218DF80110CF
:10117000C44600210BE0C7F303433F01C35C491C95
:101180006D1E02F80830052908F1010801DA002D6A
:10119000F1DC00210CE000EB1973491C1B786D1E7B
:1011A000082902F808304FEA091908F1010801DAA4
:1011B000002DF0DC21688B0602D516E0A8F10108AD
:1011C000E04505DD02EB080313F8013C302BF5D0B8
:1011D000B8F1000F09DD02EB080313F8013C2E2BD8
:1011E00003D1090701D4A8F10108002D05DD3E2136
:1011F00002F808106D1E08F10108407C002E02F86C
:10120000080008F1010804DA2D20764202F80800EF
:1012100002E02B2002F808000A214FF47A7086427F
:1012200008F101080BDB96FBF0F3303302F80830CD
:1012300096FBF0F308F1010800FB136601E0642E51
:101240000CDB642096FBF0F3303302F8083096FB99
:10125000F0F308F1010800FB136601E00A2E06DB3B
:1012600096FBF1F0303002F8080008F1010896FB17
:10127000F1F001FB1060303002F80800A16908F1BC
:10128000010808EB050202EB0A00081AA0612078A9
:10129000C00602D42046FFF753F9216A08AE01EBDD
:1012A0000A00206204E0D4E9012116F8010B9047FE
:1012B000BAF1010AF7D22078C00602D52046FFF71E
:1012C0003FF96E4609E016F8010B3E280FD0D4E92D
:1012D00001219047206A401C2062B8F10108F2D237
:1012E0002046FFF743F909B00320BDE8F08F206ADC
:1012F0002844206203E0D4E90121302090476D1E8C
:10130000EBD3F8E7AA4E000002FCFFFF10B54369DB
:1013100013B1AFF3008001E0FFF74BF9012010BDDE
:10132000127800F124010A7000224A700122EDE7D0
:1013300011684FF0FF32E9E710B5436913B1AFF31D
:10134000008001E0FFF7D4F9012010BD128800F100
:10135000240182840022C2840122EDE711684FF04B
:10136000FF32E9E770B516460C46054600F044F832
:10137000036893F80101012806D0FF2C0FD8185DEF
:1013800068B101202C7070BDD3F8070132462146A8
:1013900003F2071303442846BDE8704018474FF096
:1013A000FF3070BD00487047F41D00207546FFF700
:1013B000F9FFAE4605006946534620F00700854612
:1013C00018B020B5FEF7BCFFBDE820404FF0000686
:1013D0004FF000074FF000084FF0000B21F007011D
:1013E000AC46ACE8C009ACE8C009ACE8C009ACE860
:1013F000C0098D467047000010B500F005F8001DCB
:1014000010BD00BF154B000000487047141E00209F
:101410002DE9F0411F46044603260168072A01F41E
:10142000006004DB08B116A505E016A503E008B1CD
:1014300015A500E015A521F010002060A069C01ED0
:10144000A0610FB1401EA0612046FFF779F84FB1AF
:10145000D4E9012138469047206A401C2062C01C14
:10146000206206E0206AFAE7D4E9012115F8010BB1
:101470009047761EF8D22046FFF778F8BDE8F08155
:101480004E414E006E616E00494E4600696E660028
:101490002DE9F047814616468AB0354878440DC894
:1014A0008DE80D0032487844801C03AC0DC884E8F8
:1014B0000D0041F69B300844372190FBF1F290FB80
:1014C000F1F5A5F1800501FB12041B3C02D5644235
:1014D000012000E00020DFF898A080460027FA44B1
:1014E000AAF1BE0A0EE0E0070AD03246684607EBD2
:1014F000470101230AEB810100F01EFB8DE8070084
:1015000064107F1C002CEED1194F7F44AE3F19E0D0
:10151000E80715D007EB04100DF1180A90E80E004B
:101520008AE80E00C068F04201D19819089032464E
:10153000012306A903A800F0FFFA03AB83E8070024
:101540006D10641C002DE3D14FF001033246694653
:10155000B8F1000F03A802D000F0D9FA01E000F0C2
:10156000EBFAC9E90001C9F808200AB0BDE8F08724
:10157000B44B000010B50446AFF300802046BDE830
:101580001040FEF7C8BE00004FF0013C50F8042B9D
:1015900051F8043B9A4221D1A2EB0C03934313EA86
:1015A000CC1317D150F8042B51F8043B9A4215D1B3
:1015B000A2EB0C03934313EACC130BD150F8042B8A
:1015C00051F8043B9A4209D1A2EB0C03934313EA6E
:1015D000CC13DBD04FF00000704700BFD01A01BA27
:1015E000B1FA81F101F0180122FA01F0CB40C1F10A
:1015F0002001DBB2C0B2C01A2CFA01F3D11A914318
:1016000011EAC311E6D1704701491820ABBEFEE7CD
:101610002600020070475FEA400C08BF91F0000FFF
:101620004FEA8C234FEAC12243EA51514FEA1C5042
:1016300018BF00F5F0404FEA300018BF41F00041FC
:101640005FEA6C5C00F02980BCF1FF3F08BF40F00E
:1016500080407047130C06BF12044FF0100C4FF07F
:10166000000C130E04BF12020CF1080C130F04BF80
:1016700012010CF1040C930F04BF92000CF1020C48
:10168000D30F04BF52000CF1010C11464FF00002C1
:10169000A0F11F00A0EB0C00704711F0004F08BF35
:1016A000704731F000413FF4D5AF0B0C06BF090481
:1016B0004FF0100C4FF0000C0B0E04BF09020CF1A0
:1016C000080C0B0F04BF09010CF1040C8B0F04BFB5
:1016D00089000CF1020CCB0F04BF49000CF1010C86
:1016E000CCF12003A0EB0C0022FA03F302FA0CF277
:1016F00041EA030100F10100704720F07F4C80EACD
:10170000030023F07F47ACEB070303F57C5300F0A5
:10171000004003F1FF032DE980494FEA154B09B45E
:101720004FEA144325EA0B4E24EA03480FF204263D
:1017300006EB132749083E785FEA320203FB06678F
:10174000C7F5000707FB06F64FEA54374FEAD646BF
:1017500006F1020607FB066CCCF1005C4FEA1C4761
:101760002CEA074C07FB06F40CFB06F504EB1546C8
:101770004FEA961634BF00204FF000404FEAD137B1
:1017800006FB07FC4FEA1C4C0CFB0BF7D21B03FBC0
:101790000CF761EB07010CFB0EF7B0EB074072EBA7
:1017A00017420CFB08F734BFA2EB0742B2EB07422B
:1017B00061EB17414FEA0C444FEA910706FB07FC27
:1017C0004FEA1C4C0CFB0BF7B0EBC74072EB5732E7
:1017D00003FB0CF734BFA2EBC742B2EBC74261EB8D
:1017E00057310CFB0EF7B0EBC70072EB57720CFBD6
:1017F00008F734BFA2EBC702B2EBC70261EB577127
:10180000039F4FEA816141EA921104EBCC044FEA55
:10181000D1374FEA826206FB07FC42EA90124FEA98
:1018200080604FEA1C4C0CFB0BF7D21B03FB0CF740
:1018300061EB07010CFB0EF7B0EB074072EB1742B0
:101840000CFB08F734BFA2EB0742B2EB074261EB97
:1018500017414FEA8C554FEA910704EB9C2406FB95
:1018600007FC4FEA1C4C0CFB0BF7B0EBC74072EBCC
:10187000573203FB0CF734BFA2EBC742B2EBC742AF
:1018800061EB57310CFB0EF7B0EBC70072EB5772F0
:101890000CFB08F734BFA2EBC702B2EBC70261EB47
:1018A000577115EB4C254FEA816141EA92114FEADD
:1018B00082624FEAD13742EA901206FB07FC44F1FC
:1018C00000044FEA80604FEA1C4C0CFB0BF7D21B64
:1018D00003FB0CF761EB07010CFB0EF7B0EB0740C5
:1018E00072EB17420CFB08F734BFA2EB0742B2EBD6
:1018F000074261EB174115EB1C154FEA813141EAB4
:1019000092414FEA823242EA90424FEA80304FEAF7
:101910000C7644F1000448EA03434EEA0B484FF0CA
:10192000000EB2EB080C71EB030724BF6246394688
:101930004EEB0E0E4FF0000B0018524149414BEB9D
:101940000B0BB2EB080C71EB03077BF1000B24BF10
:10195000624639464EEB0E0E4FF0000B0018524116
:1019600049414BEB0B0BB2EB080C71EB03077BF11E
:10197000000B24BF624639464EEB0E0E51EA0207B9
:1019800018BF46F0010616EB0E7655F1000254F131
:10199000000103D5BDE88901BDE80088BDE88901E3
:1019A000BDE80048B619524141EB0101A3F1010322
:1019B000704780807F7E7D7C7B7A797877767675BC
:1019C0007473727171706F6E6E6D6C6C6B6A6A6934
:1019D0006868676666656464636362616160605FCE
:1019E0005F5E5E5D5D5C5C5B5B5A5A595958585747
:1019F00057565655555554545353525252515150AF
:101A000050504F4F4F4E4E4D4D4D4C4C4C4B4B4B01
:101A10004A4A4A4949494848484747474746464647
:101A20004545454444444443434343424242424182
:101A30004141002B9C4630D477002BD01CB54FEA97
:101A4000370703B44FF010004FF01001BAF1000F48
:101A500006D0BCF1000FDCBF40F0080040F00801E8
:101A60004FF000000FBCBDE810400BF1010BBBF1C3
:101A7000010F08BF5FEA170722BF12F1010211F13F
:101A800001014FF0004143F1000300F0004043EA40
:101A900000007047F9D35708D0E746EA064613F12D
:101AA000400F4FEA16461FDD13F1200FDFBF16432C
:101AB0000A46002120335B42BED0C3F1200746EA2C
:101AC000064602FA07F74FEA164646EA0706C3F14A
:101AD000200722FA03F201FA07F721FA03F14FF087
:101AE000000342EA0702A7E746EA020646EA06467C
:101AF0004FEA164646EA0106BCBF46EA0646360CE1
:101B00004FF000034FF000024FF0000194E72DE981
:101B1000804C9A46934670B491E8380007C831EA81
:101B2000400C48BF34EA430C03D5FFF7E6FDFFF74E
:101B300080FFF0BCBDE8008C2DE9804C9A469346AE
:101B400070B491E8380007C810F0804F08BF13F058
:101B5000804F03D100F005F8FFF76BFFF0BCBDE844
:101B6000008C20F07F4780EA030023F07F4C07EBD6
:101B70000C03A3F57C5300F00040A3F1FE0392F0A8
:101B8000000F00F0B38095F0000F00F077802DE992
:101B900001494FEA11404FEA144621EA004800FB90
:101BA00006FC24EA064708FB06F607FB08F800FBDC
:101BB00007F718EB06484CEB164C4FEA124B18EBA4
:101BC00007484FEA15464CEB174022EA0B4E0BFB39
:101BD00006FC25EA06470EFB06F607FB0EFE0BFB8E
:101BE00007F71EEB064E4CEB164C4FF000061EEBB3
:101BF000074E4CEB174B18EB0B0840F1000018EBAD
:101C00000E0B58EB000840F100008F1A4FF0000156
:101C10003CBFC943661B14BFB5EB040C00213CBF9D
:101C2000C943F61B4FEA17444EEA8E0E27EA0445D5
:101C30004FEA1C4704FB07622CEA074C05FB07F739
:101C40000CFB05F604FB0CFC16EB074642EB1742B7
:101C500016EB0C4642EB1C421BEB060658EB02024D
:101C6000414146EA9E0601D5BDE80189B6195241B7
:101C700041EB0101A3F10103BDE801894FEA1445DD
:101C80004FEA114724EA054621EA074C05FB07F411
:101C900006FB07F70CFB06F105FB0CFC11EB0741FB
:101CA00044EB17444FEA124711EB0C4144EB1C4440
:101CB00022EA074C05FB07F206FB07F70CFB06F6CA
:101CC00005FB0CFC16EB074642EB174216EB0C46E5
:101CD00042EB1C456A1854F1000148BF7047B61921
:101CE000524141EB0101A3F10103704795F0000F50
:101CF00037D04FEA11424FEA144721EA024624EA5C
:101D0000074C02FB07F106FB07F70CFB06F402FB8E
:101D10000CFC14EB074441EB17414FEA154714EB59
:101D20000C4441EB1C4125EA074C02FB07F506FB7E
:101D300007F70CFB06F602FB0CFC16EB074645EB1F
:101D4000174516EB0C4645EB1C42121951F10001E8
:101D500048BF7047B619524141EB0101A3F101039D
:101D600070474FEA14454FEA114724EA054621EA35
:101D7000074C05FB07F106FB07F70CFB06F24FF0DB
:101D8000000605FB0CFC12EB074241EB174112EB7E
:101D90000C4251EB1C4148BF7047921841EB0101C6
:101DA000A3F101037047FEE704284FF000007047DD
:101DB0000020704710B500220449054802F096FA49
:101DC0000449034802F084FA002010BDC80E002028
:101DD000EC010020C806002010B50146034802F0BF
:101DE00077FA024802F044FA002010BDEC0100200E
:101DF0000020704710B50A460849D1F8BC12D1F846
:101E00001412002901D0012010BD0146034802F040
:101E10006DFABDE81040014802F000BBEC01002063
:101E2000704772B6FEE7000070B50B480168001DF0
:101E30000568001D0068084400280CD0074C0822E3
:101E4000A11C01F054FD04F112012846BDE87040C8
:101E5000042201F04CBD70BD107AFF1F4400002029
:101E600070B5044600F002F90546601C02D0044833
:101E70000078044400F0FAF8401BA042FAD370BD89
:101E8000000000202DE9F84FDFF8ACA1002201246A
:101E900003254FF00F090AF1040BAAF1040E00BF4D
:101EA0000B6804FA02F63340B3426ED10F7907F0A3
:101EB0000307012F01D0022F16D187684FEA42088D
:101EC00005FA08FC27EA0C07D1F80CC00CFA08FC4C
:101ED0004CEA070CC0F808C04768B7430E79C6F350
:101EE000001696403E4346600E79F643B6070AD088
:101EF000C6684FEA420C05FA0CF7BE438F6807FA32
:101F00000CF73743C7600E7906F00306022E10D196
:101F1000D60800EB8608D8F8206057074FEAD76C40
:101F200009FA0CF7BE430F6907FA0CF73743C8F8F4
:101F3000207006684FEA420C05FA0CF7BE430F7991
:101F400007F0030707FA0CF7374307604E6816F4EB
:101F5000403F6BD0394E376847F48047376036686A
:101F600022F0030706F480460096354E07EB060C78
:101F7000DCF8086897074FEA177809FA08F7BE43B4
:101F8000304FB84202D100271FE04FE02E4FB84239
:101F900001D1012719E02D4FB84201D1022714E0E9
:101FA0002B4FB84201D103270FE02A4FB84201D18D
:101FB00004270AE0284FB84201D1052705E0274F42
:101FC000B84201D1062700E0072707FA08F7374390
:101FD000CCF80878DAF800605746D1F804C09E4380
:101FE0005FEACC2C00D51E433E60DBF800605F4604
:101FF000D1F804C09E435FEA8C2C00D51E433E609E
:10200000DEF800607746D1F804C09E435FEA8C3C5E
:1020100000D51E433E60084F083F3E68D1F804C01B
:102020009E435FEACC3C00D51E433E60521C102A02
:10203000FFF436AFBDE8F88F083C01404438024059
:10204000003001400000024000040240000802404D
:10205000000C024000100240001402400018024030
:102060000AB1816170470904FBE7000001488068FC
:102070007047000000000020024881680278114487
:1020800081607047000000200B4810B5016841F4E2
:1020900000710160016841F480610160016841F4F0
:1020A00080710160032000F06FF80F2000F006F847
:1020B00000F024F8002010BD003C024070B50D4D2A
:1020C00004464FF47A712878B1FBF0F00A490968A8
:1020D000B1FBF0F001F090FB48B9102C07D20022C0
:1020E0002146501E00F030F800206C6070BD0120C9
:1020F00070BD0000000000200C0000200A4808B558
:10210000016841F480410160006800F48040009063
:102110000548001F016841F080510160006800F02F
:102120008050009008BD000044380240002809DBC0
:1021300000F01F02012191404009800000F1E020E1
:10214000C0F8001170470000F0B40E4B1B680C463D
:10215000C3F30223C3F10705042D00D90425191D7B
:10216000072901D2002300E0DB1E012606FA05F153
:10217000491E214099409E40761E16403143F0BCD6
:1021800003F05DBE0CED00E0064900F007020868B0
:102190004FF6FF03184040EA0220034A104308604C
:1021A000704700000CED00E00000FA050122016814
:1021B000C0F80025002280F8F424886940F000600F
:1021C0008861486D024A104348650020704700004E
:1021D0000300001070470068416200207047F0B5AE
:1021E0000368586A39B19C6A4FF4827600EB144454
:1021F00000204D1E0AE040EA024098620FE006EB24
:102200008007DF59401C04EB1744C0B2A842F6D344
:1022100044EA02404FF4807202EB810158500020E2
:10222000F0BDD0F8080502F07DBC01EBC10200EB67
:102230008202D0F80805D26C02F09EBB01EBC1020D
:1022400000EB8202D0F80805D2F88C2202F002BC22
:10225000D0F8080502F068BC0A0601F00F0101EB96
:10226000C10100EB810101D53C3101E001F51F7195
:10227000006803F013BC70B504460B0601F00F00B4
:1022800000EBC00104EB81014FF001024FF00005AB
:1022900003D581F83D203C3103E081F87D5201F502
:1022A0001F71087094F8BC04012808D084F8BC247D
:1022B000206803F0AFF884F8BC54002070BD022001
:1022C00070BD70B5044601F00F006268904201D9FC
:1022D000012070BD0B0601F00F0101EBC10104EB01
:1022E00081014FF001024FF0000503D581F83D2038
:1022F0003C3103E081F87D5201F51F718D7008704B
:1023000094F8BC04012808D084F8BC24206803F0A9
:102310007BFA84F8BC54002070BD022070BD01F02F
:102320000F0101EBC10100EB8100D0F89C02704766
:102330002DE9F04104460F0601F00F0000EBC0014B
:1023400004EB81014FF001064FF0000503D581F841
:102350003D603C3103E081F87D5201F51F7108704A
:10236000CA600B714A7802B10881022B00D14D710D
:1023700094F8BC04012809D084F8BC64206802F0F9
:10238000A1FF284684F8BC54BDE8F0810220FBE799
:1023900070B50C4601F00F0505EBC50100EB81019E
:1023A000C1F89432C1F88C220023C1F89C3281F824
:1023B0007D3281F87C52036901F51F71012B00D138
:1023C0004A612207027C006803D003F075FA0020FE
:1023D00070BD03F05FF9FAE770B504460D4601F0F1
:1023E0000F006168884201D9012070BD29064FF0B5
:1023F00000064FF0010207D500EBC00104EB81019C
:1024000081F83D203C3107E005EBC50104EB81017B
:1024100081F87D6201F51F718A70087094F8BC0420
:10242000012807D084F8BC24206803F019FA280793
:1024300002D007E0022070BD217C04F2C442206873
:1024400003F0B6F984F8BC64002070BD70B50C468A
:1024500001F00F0505EBC50100EB81014B65CA6476
:102460000023CB65012381F83D3001F83C5F03690F
:10247000012B00D14A612207027C006803D003F0DF
:102480001BFA002070BD03F005F9FAE72DE9FC5FA7
:1024900005680446284603F0A2FB00287DD1206889
:1024A00003F0C9FB002878D0D5F80808C0F30D2048
:1024B000C4F8FC04206803F0BEFB800704D5216843
:1024C000486900F002004861206803F0B4FBC106CF
:1024D00004F2C440009034D52068816921F01001D5
:1024E00081612F6A07F00F0000EBC00004EB80064B
:1024F000C7F3434006F51F76022802D0062811D004
:102500001AE047F6F070074216D0C7F30A121746D2
:102510002846316903F093FB306938443061306AF2
:10252000384408E008222846009903F088FB316A05
:10253000C7F30A10084430622068816941F0100135
:102540008161206803F077FB00034FF0080B4FF028
:10255000000A4FF001097CD50026206803F04AFBF1
:10256000074674E0F80770D0F1B2206803F05BFB17
:102570008046C00707D005EB4611C1F8089B3146DD
:10258000204601F0DFFA5FEA087024D505EB46111A
:10259000C1F808BB2068016C00E043E200EB461084
:1025A0000191D0F8082BF84B994205D9110403D5B5
:1025B0004FF40041C0F8081B204600F036FBF249FA
:1025C0000198884207D92069012804D12068012197
:1025D000009A03F0EDF85FEAC86004D505EB4611F8
:1025E0001020C1F8080B5FEA88701DD568690006E5
:1025F00005D5D5F8040840F48061C5F8041806EB49
:10260000C60004EB800090F87F1200F51F700129CE
:1026100005D180F803A0F1B2204600F009FA05EBDD
:1026200046110220C1F8080B5FEA886004D505EB6B
:1026300046102021C0F8081B5FEA884005D505EB4D
:1026400046104FF40051C0F8081B7F08761C002F7D
:1026500088D1206803F0EFFA40036FD5206803F0BB
:10266000C2FA0746002667E0F80763D0F1B2206897
:1026700003F0C7FA8046C00723D006F00F0209FA1C
:1026800002F0D5F834288243C5F8342805EB46100B
:10269000C0F80899206901280FD106EBC60004EBA9
:1026A0008000D0E912211144C16436B9606D20B9AF
:1026B00020680121009A03F07BF8F1B22046FFF771
:1026C000B4FD5FEA087003D505EB4610C0F808B901
:1026D0005FEAC86004D505EB46101021C0F8081960
:1026E0005FEA486004D505EB46104021C0F80819A0
:1026F0005FEA887017D53146284603F043FA06EBA7
:10270000C60004EB800090F83F103C30012905D151
:1027100080F803A0F1B2204600F086F905EB4610E0
:102720000221C0F808195FEA086003D53146204647
:1027300001F06EFA7F08761C002F95D1206803F017
:102740007AFA002811DAD5F8040820F00101C5F85A
:10275000041894F8F40401283BD0204600F049FA0C
:102760002068416901F000414161206803F063FA8B
:1027700000050BD5D5F80808C00702D0204600F0A8
:102780007DFA2068416901F400614161206803F02D
:1027900052FA00010AD52068416901F000614161E7
:1027A00094F8F404E0B1204600F068FA206803F0E1
:1027B00042FAC00474D5D5F8040820F00101C5F828
:1027C00004181021206803F0DDF900214FF67F3254
:1027D0002DE084F8F4A400212046FFF7FBFCBFE7BE
:1027E00084F8F4942068406D0121C0F38300C4F89C
:1027F000F8042046FFF7EEFCD8E700BF05EB4110D8
:10280000C0F80829D0F8003923F40013C0F80039C3
:10281000C0F8082BD0F8003B23F40013C0F8003BAD
:10282000D0F8003B43F00063C0F8003B491C6068EF
:102830008842E3D8D5F81C0840F00111C5F81C18EF
:10284000206B002828460DD0D0F8840840F00B01FA
:10285000C5F88418D5F8440840F00B012846C5F89F
:1028600044180DE0D0F8140842F22B010843C5F8D3
:102870001408D5F8100840F00B012846C5F81018C8
:10288000D0F8000820F4FE61C5F80018217C20680B
:10289000009A02F08DFF2068416901F48051416186
:1028A000206803F0C8F9800415D5206802F04AFDBD
:1028B000206803F087F9E06000F0E2FC0146227B2B
:1028C000206803F01BFA204600F080F92068416977
:1028D00001F400514161206803F0ADF9000707D50C
:1028E000204600F08AF92068416901F00801416141
:1028F000206803F0A0F9000616D5A86920F0800131
:10290000A96101260DE000BF06EBC60004EB8000C4
:1029100090F87F02012803D1F1B22046FFF79CFC1A
:10292000761C6068B042EFD8206803F084F9C002DA
:1029300021D501264F4616E005EB4610D0F80009D8
:1029400006EBC60104EB810191F84020012A09D170
:10295000002807DA81F83F70F0B240F0800120468D
:10296000FFF77AFC761C6068B042E5D820684169C0
:1029700001F480114161206803F05DF9800234D5D3
:1029800001204A4629E000000A30544F05EB40116F
:10299000D1F8001B00EBC00304EB830393F88062C3
:1029A000012E19D1002917DA94F8FC6401F4803162
:1029B00006F00106B1420FD183F87F22A96941F0E8
:1029C0008003AB616969090606D4D5F8040840F4B0
:1029D0000070C5F8040803E0401C61688142D5D846
:1029E0002068416901F400114161206803F023F976
:1029F000400007D52046FFF714FC2068416901F02C
:102A000080414161206803F016F940070AD520682B
:102A10004568680702D52046FFF71AFC2068416820
:102A200029434160BDE8FC9FD0F8080502F0D3B807
:102A3000D0F8080502F0E4B82DE9F0418AB00400AE
:102A400005D094F8BD042668002520B108E00120D7
:102A50000AB0BDE8F08184F8BC54204600F064F868
:102A6000032084F8BD04F06BC00500D42561206804
:102A700002F00AFE04F11001282288466846FDF79C
:102A800003FD94E80F0002F06BFC0226C8BB002196
:102A9000206803F0F3F8002001270EE000EBC001EE
:102AA00004EB810181F83D7001F83C0F08810D7144
:102AB000CD600D61401CC0B28D6161688142EDD86E
:102AC000002011E000EBC00104EB810181F87D5290
:102AD00081F87C0281F88052C1F88852C1F88C528A
:102AE000401CC0B2C1F8945261688142EAD82822E1
:102AF00041466846FDF7C8FC94E80F0002F00CFD63
:102B000010B184F8BD64A2E784F8385084F8BD742D
:102B1000606A012802D12046FFF748FB206802F0D6
:102B2000EDFC002094E7000030B59DB00546002480
:102B3000189419941A941B941C94582102A8FDF718
:102B4000D5FC2868B0F1A04F35D1202002900E941A
:102B500002A800F05FF908B1FFF763F917480168B0
:102B600041F001010160006800F0010001904FF4A4
:102B7000C0501890022019901A9403201B900A202C
:102B80001C9018A90E48FFF77DF90E48016841F026
:102B9000800101600C48016841F4804101600068D7
:102BA00000F480400190002211464320FFF7CCFA48
:102BB0004320FFF7BBFA1DB030BD000030380240A3
:102BC00000000240343802404438024070B50446E8
:102BD0000125E068022801D0FFF723F92946D4F83F
:102BE000080502F07EF8D4F80805BDE8704002F050
:102BF00031B8D0F8080502F05DB8D0F8080502F049
:102C000063B810B5044690F8BC0401280BD001202D
:102C100084F8BC0484F83810206803F05DF80020C4
:102C200084F8BC0410BD022010BDD0F8082500F2C5
:102C3000C441104602F061B810B50446006894F82B
:102C4000BC14012906D0012184F8BC14A16A012911
:102C500002D008E0022010BDA169012903D0816BD8
:102C600041F480318163206802F067FF206802F040
:102C700037FC002084F8BC0410BD000010B50446E9
:102C8000D4F8080502F07DF82068D0F8001E41F065
:102C90000101C0F8001E206A002804D00248016823
:102CA00041F00601016010BD10ED00E0F8B50446EA
:102CB000FFF7DCF9064624B194F84100002510B175
:102CC00009E00120F8BD84F84050204600F042F8A9
:102CD00041F28830A06420680168A2686FF0FF03A9
:102CE00021F4F85103EB022211430160A06C009023
:102CF000334600222021204600F0DCFF10BBE269B1
:102D0000E16823791143226A42EA0362114322688F
:102D100013680E4E334019431160D4E90512114374
:102D2000226853680A4E3340268A43EA0643194311
:102D3000516021680A6842F001020A60656401215D
:102D400084F8411084F84050F8BD00002FFFFF00C8
:102D5000FEF8E0FF2DE9F04186B0044614216846F4
:102D6000FDF7C4FB26492068884246D12548002546
:102D7000016841F002010160006800F00200059066
:102D800020480838016841F001010160016801F044
:102D900001010591016841F004010160016801F041
:102DA00004010591016841F00201016000680224FC
:102DB00000F002000590C02003260A278DE8F100EC
:102DC00069461148FFF75EF830208DE8F100DFF822
:102DD0003C8069464046FFF755F801AA0927009450
:102DE00082E8F00069460A48FFF74CF8A0028DE837
:102DF000F10069464046FFF745F806B0BDE8F081AE
:102E0000001000A0383802400000024000080240D4
:102E1000000402402DE9F84F044600780027C34D16
:102E2000C00708D02868E16920F0C0600843286026
:102E3000E06900B901272078800708D52868216A51
:102E400020F0C05008432860206A00B9012720887C
:102E500081046FF0FF0015D52968A26C21F44011A0
:102E600011432960A16C19B1B1F5001F02D009E02E
:102E7000012707E02968626921F4F85100EB02227A
:102E8000114329602188490415D52968E26C21F491
:102E9000400111432960E16C19B1B1F5000F02D076
:102EA00009E0012707E02968626921F4F85100EB85
:102EB00002200143296020784FF00009000755D512
:102EC0009A484C38016841F0805101600068DFF891
:102ED000608200F080500090D8F8001041F48071BA
:102EE000C8F80010FFF7C2F8064604E0FFF7BEF886
:102EF000801B02286FD8D8F80000C005F6D58B4E8D
:102F00001C3E306810F440701FD0A18C01F4407159
:102F100081421AD03068012220F440718548026055
:102F2000C0F8009031603068C0070ED0FFF79EF8FF
:102F3000804641F2883A05E0FFF798F8A0EB0801D7
:102F4000514548D830688007F6D5616A7748C1F3A3
:102F500001228438032A36D0016821F4F811016077
:102F60003068A18CC1F30B01084330602078DFF892
:102F7000C8A1400703D594F85410CAF8E01120788E
:102F80006E4EC00605D53068E16A20F44000084363
:102F9000306020784FF00068800609D53068216BDA
:102FA00020F0006008433060206B404500D10127CD
:102FB0002078400605D53068A16A20F0805008438B
:102FC000306067B908E002685D4B22F4F8121940DE
:102FD0000A430260C4E773E02068802877D1DFF8F5
:102FE00064B1CBF86890FFF741F8504F81468C3FB1
:102FF00006E000BFFFF73AF8A0EB090002285FD80F
:1030000038680001F6D4216DCAF8D81020684E49FE
:10301000C20701D0E2697AB1820701D5226A5AB1AA
:10302000820602D5226B424506D040060FD5A06A23
:1030300068B9206B40450AD1D4E9010240EA821008
:10304000227B237C120642EA037210430860206848
:10305000820401D5A26C1AB1400415D5E06C98B970
:103060000868D4E9012342EA8312C0F30360237C99
:10307000000640EA037002430A602868A26920F053
:103080001F00521E10432860207800060AD5D4E99C
:10309000010240EA8210227B237C120642EA03727C
:1030A000104308600120CBF86800FEF7DFFF804680
:1030B0000AE000BFFEF7DAFFA0EB0800022803D900
:1030C0000320BDE8F88F02E038680001F2D52088BF
:1030D000C00505D52868616B20F0004008432860D2
:1030E0002088800505D52868A16B20F4004008439E
:1030F00028602088400505D52868E16B20F0004055
:10310000084328602088000505D52868216C20F434
:103110008040084328602088C00405D53068616C71
:1031200020F04040084330600020CAE78C3802405D
:1031300000700040400E4742001047429438024061
:10314000FFFCFF0F00004742843802402DE9F047A2
:103150000E46050065D0DFF81481D8F80000F7B2FC
:1031600000F00700B04207D288F80070D8F80000DD
:1031700000F00700B04254D128683D4C810712D5B9
:10318000400703D5206840F4E0502060287800070D
:1031900003D5206840F4604020602068A96820F0D2
:1031A000F000084320602878C0072DD030496868B7
:1031B0000839012812D0022813D0032811D0096839
:1031C000890700292DDA216821F0030101432160DC
:1031D000FEF74CFF814641F2883A0EE00968890308
:1031E000EFE709688901ECE7FEF740FFA0EB090172
:1031F000514502D90320BDE8F0872068696800F0D6
:103200000C00B0EB810FEFD1D8F80010404601F070
:103210000701B14207D90770006800F00700B0420B
:1032200001D00120E7E72878400705D52068E96844
:1032300020F4E050084320602878000706D5206875
:10324000296920F4604040EAC100206000F03EF8A7
:103250002168084AC1F30311515CC840064908605F
:1032600006480068FEF72AFF0020C4E7003C024041
:1032700008380240565F00080C00002004000020BF
:1032800001480068704700000C0000200448054910
:1032900000680968044AC1F38221515CC840704744
:1032A0000C00002008380240665F00080448054909
:1032B00000680968044AC1F34231515CC840704754
:1032C0000C00002008380240665F0008154810B561
:1032D000006810F00C02144813D04110042A0FD0DB
:1032E000082A0ED10F4C241F2268236802F03F02E7
:1032F0005B0207D52068C0F38810A0FB010106E03F
:10330000084610BD2168C1F38811A1FB000100230C
:10331000FDF728F82168C1F30141491C4900B0FBC1
:10332000F1F010BD083802400024F4002DE9F84FF8
:1033300004006ED02078DFF86093C007A9F104057F
:103340004AD009F104000168C1F38101012908D0C4
:103350000068C0F3810002280AD1D9F800004002B9
:1033600006D52868800337D560680028E1D033E0AF
:103370006068B0F5803F10D0B0F5A02F286810D05D
:1033800020F480302860286820F48020286060685D
:10339000A8B1FEF76BFE06460DE0286840F48030C9
:1033A000F4E740F480202860F7E700BFFEF75EFEF8
:1033B000801B642873D828688003F7D50CE0FEF7DB
:1033C00055FE064605E000BFFEF750FE801B642850
:1033D000F0D828688003F7D42078DFF8C08280070F
:1033E0004FF0000A3ED5AC48001D016811F00C0FEB
:1033F00008D00068C0F3810002280BD1D9F8000082
:10340000400207D42868800716D5E068012800D15B
:1034100012E03CE1E068B8B10120C8F80000FEF716
:1034200025FE064605E000BFFEF720FE801B0228B1
:10343000C0D828688007F7D52868216920F0F800EF
:1034400040EAC10028600DE0C8F800A0FEF70EFEBB
:10345000064604E0FEF70AFE801B02281FD82868F3
:103460008007F7D42078000722D58B4E8C486169FD
:10347000703671B101210160FEF7F8FD074604E0E6
:10348000FEF7F4FDC01B022809D830688007F7D585
:103490000EE0C0F800A0FEF7E9FD074605E082E077
:1034A000FEF7E4FDC01B02287DD830688007F7D402
:1034B0002078400768D5DFF8E0B100270BF13C0B1E
:1034C000DBF80000C0000BD4DBF8001041F08051A5
:1034D000CBF80010DBF80000012700F080500090CE
:1034E000704E3068C00510D4306840F48070306091
:1034F000FEF7BCFD009005E0FEF7B8FD0099401A0C
:10350000022850D83068C005F6D5634EA0686C36E6
:1035100001280FD00528306810D020F0010030605D
:10352000306820F004003060A068B8B1FEF79EFD5E
:1035300000900FE0306840F00100F4E740F0040034
:103540003060F7E7FEF792FD0099411A41F28830AA
:10355000814268D830688007F4D50EE0FEF786FD1A
:10356000009007E0FEF782FD0099411A41F2883091
:10357000814258D830688007F4D42FB1DBF80010AE
:1035800021F08051CBF80010A069D8B34249091D41
:103590000968C1F3810102294CD00228504607D0A6
:1035A000C8F8600000E03EE0FEF760FD04463DE044
:1035B0004746C8F86000FEF759FD064605E000BF23
:1035C000FEF754FD801B02282DD828688001F7D40F
:1035D000F4E907010843E168334A490802EB014175
:1035E000A26841EA82110843217C40EA0160217D02
:1035F00040EA0171C9F8001001203866FEF736FD77
:10360000044606E045E000BFFEF730FD001B02283F
:1036100009D828688001F7D53BE000BFFEF726FDFA
:10362000001B022802D90320BDE8F88F286880011A
:10363000F4D42EE00128F7D0D9F80000E26900F4B4
:103640008001914223D1226A00F03F0191421ED1B4
:1036500047F6C071626A0140B1EB821F17D1A26ABE
:103660004FF0FF3300F4403103EB5202B1EB024F55
:103670000DD194F82C2000F07061B1EB026F06D1EF
:1036800094F8301000F0E040B0EB017F01D0012051
:10369000CAE70020C8E700000438024000004742A3
:1036A000800E4742007000400000FFFF70B504002C
:1036B00009D0606A002540B125616561A56294F872
:1036C000510040B10CE0012070BD6068B0F5827F10
:1036D000F4D0E561F2E784F85050204600F044F859
:1036E000022084F851002068016821F04001016047
:1036F000A088218900F4827001F404410843A18963
:1037000001F400610843217C01F002010843217D9E
:1037100001F001010843218B01F400710843217F6E
:1037200001F03801084394F8201001F080010843AB
:10373000218D01F40051084321680860A06904212B
:1037400001EA104094F8241001F0100108432168A8
:1037500048602068C16921F40061C161656501208C
:1037600084F85100002070BDF0B587B004461421E4
:103770006846FCF7BBFE1C492068884232D11B48D2
:103780000024016841F480510160006800F4805019
:10379000059016481438016841F001010160016884
:1037A00001F001010591016841F00201016000682A
:1037B000022500F0020005902020CDE9000502AAB4
:1037C0000326052782E8D00069460948FEF75AFB20
:1037D0003020CDE9000502AA694682E8D0000548FC
:1037E000FEF750FB07B0F0BD003001404438024006
:1037F000000002400004024010B5401EB0F1807F7E
:1038000001D3012010BD4FF0E02460610F2160174B
:1038100002F015FB0020A06107202061002010BDF0
:1038200070B5040004D094F83D00002510B106E006
:10383000012070BD84F83C50204600F023F824207D
:1038400084F83D002068C16821F40051C160204621
:1038500000F0AAFA2068016921F490410161206812
:10386000416921F02A0141612068C16841F4005199
:10387000C1602564202084F83D0084F83E000020CB
:1038800070BD000010B586B0044614216846FCF7F0
:103890002DFE13492068884220D112480021026879
:1038A00042F400320260006800F4003005900D48D8
:1038B0001038026842F001020260006800F0010066
:1038C00005900C2000900220CDE901010320039017
:1038D0000720049069460448FEF7D4FA06B010BDEC
:1038E000004400404038024000000240FEE7F0B4CF
:1038F0000023002A18D90A24302537269C46B4EB29
:10390000107F04D905EB107701F8137003E006EB84
:10391000107701F81370000101EB430787F801C02D
:103920005B1CDBB29342EAD3F0BC70472DE9F04157
:1039300086B014216846FCF7D9FD3648002401689A
:1039400041F004010160016801F004010591016882
:1039500041F080010160016801F08001059101687A
:1039600041F001010160016801F001010591016868
:1039700041F002010160016801F002010591016856
:1039800041F0080101600068234E00F008004FF488
:10399000C0450590012229463046FEF761FB1F4FC6
:1039A000002210213846FEF75BFB01221102384647
:1039B000FEF756FBDFF86880012204214046FEF73F
:1039C0004FFB00950125CDE901546946304603942B
:1039D000FEF758FA4FF488700090CDE9015469461B
:1039E00038460394FEF74EFA04200090CDE90154C6
:1039F000694640460394FEF745FA082000904FF4CC
:103A00008810CDE9010469460648FEF73BFA06B086
:103A1000BDE8F0813038024000080240000002405A
:103A2000000C0240000402400D4810B50B49016033
:103A3000FF210122C0E901120021C0E90312802206
:103A40004161C0E906120162FFF730F9002803D096
:103A5000BDE81040FEF7E5B910BD0000001000A061
:103A6000040100200F4810B50D4901604FF4827128
:103A7000416000218160C1604FF400720161C0E9C2
:103A80000512C1610162416281620A21C162FFF7D0
:103A90000DFE002803D0BDE81040FEF7C2B910BDEE
:103AA00000300140500100200C4810B50A49016067
:103AB0004FF4E1314160002181600C22C160C0E916
:103AC00004128161C161FFF7ABFE002803D0BDE89D
:103AD0001040FEF7A6B910BD00440040A801002028
:103AE00010B500220F49104800F020FF08B1FEF782
:103AF00098F90E490C4801F06FF908B1FEF791F9F9
:103B00000B49094800F0D8FB08B1FEF78AF90648CE
:103B100001F038FA002803D0BDE81040FEF781B963
:103B200010BD000010000020EC010020CC0000209F
:103B300060000020FEE7FEE70148FEF7A7BC00009A
:103B4000E81800202DE9F04103680D4604461E6C7C
:103B500003EB4511D1F8080BD4F810E04FF40047FF
:103B60004FF0200C04F2C442BEF1010F09D0DFF87F
:103B700098E0764539D1020432D500BFC1F8087B00
:103B80003FE0224B5FEA007E04D59E4239D9000413
:103B9000F4D436E05FEA806E02D5C1F808CB30E09D
:103BA00010F0280F2DD19E4201D90004E6D405EB78
:103BB000C50004EB8000D1F8101BD0F89832C1F397
:103BC0001201591AC0F89C1200F51F70ADB9836933
:103BD0001BB10269114401610FE0012120680AE074
:103BE00080060AD5C1F808CB07E035B9D4F89402AD
:103BF00018B90021184601F0DBFDE9B22046FEF7B6
:103C00001DFB0020BDE8F0810A31544F0A30544FAB
:103C10002DE9F84F0E4601EBC60100EB8104814609
:103C20000568616DE06D3C34884202D90120BDE831
:103C3000F88F081AE168814200D20846C01C870844
:103C400005EB46181BE000BFA0EB010AE0685045F9
:103C500000D282460AF10300870899F8100000900C
:103C60001FFA8AF3F2B22846216902F0BBF82169F3
:103C700001EB0A002061216A01EB0A002062D8F8FA
:103C8000180980B2B84205D3216AA069814201D2E5
:103C90000028D9D1216AA069884208D806F00F010E
:103CA00001208840D5F834188143C5F83418002025
:103CB000BDE770472DE9F041984616460F46044689
:103CC000069D08E0681C06D0FEF7D0F9A0EB0800BE
:103CD000A8420AD84DB120688068384000D0012041
:103CE000B042EFD10020BDE8F081042084F841000B
:103CF000606C40F0010060640120F4E77047FEF75B
:103D0000BBB9000030B593B034216846FCF7EEFB38
:103D100014210DA8FCF7EAFB1D480025016841F0BD
:103D200080510160006800F08050129019480168CD
:103D300041F4404101600068022400F440401290C8
:103D400001200090000401908001CDE9064004208C
:103D500008904820CDE909040320CDE90B0468460A
:103D6000FFF7E4FA08B172B6FEE70DA90F2081E86B
:103D700031004FF48050CDE9100502210DA8FFF766
:103D8000E5F9002801D072B6FEE713B030BD00009F
:103D900040380240007000400248016841F4700160
:103DA0000160704788ED00E070B504460068016965
:103DB000E26821F44051114301612169A068E26980
:103DC00008436169114308432168CA6849F20C63DA
:103DD0009A430243CA6020684169A26921F4407194
:103DE0001143416134492068884208D033498842F0
:103DF00005D03349884202D03249884202D1FFF7C8
:103E000055FA01E0FFF742FAE2690023192164251F
:103E10003226B2F5004F626828D0A0FB0101930F53
:103E20009200FCF79FFA0146B0FBF5F06FF0180224
:103E3000504301EB800006EB0010B0FBF5F000F002
:103E4000F002B1FBF5F002EB0012B1FBF5F06FF000
:103E50001803584301EB800006EB0010B0FBF5F0AF
:103E600000F00F0021681044886070BDA0FB0101C4
:103E700092185B41FCF776FA0146B0FBF5F00201BF
:103E8000B1FBF5F06FF01803584301EB800006EB2F
:103E9000C000B0FBF5F000F0F80002EB4002B1FB0F
:103EA000F5F0584301EB800006EBC000B0FBF5F0E5
:103EB00000F00700D6E700000010014000140140A8
:103EC00000180140001C014070B5D0F8C822D0F89D
:103ED000D43200EB8303D3F8C032002B28D001F09A
:103EE0000F0C0CEB8C0400EB84050026AC6954B17C
:103EF0000CEBCC0C02EB8C02D2F848C0B4FBFCF209
:103F00000CFB1242B2B1C3F81462D0F8D42200EB19
:103F10008200D0F8C402D0F810C0BCF1000F05D068
:103F20000A4603F50471D3F80802E047002070BD8B
:103F3000032070BDAE6100231A4600F02BFFF5E7A9
:103F400070B50446D4F8D40204EB8000D0F8C05217
:103F5000002D12D0204600F0F7FDC5F80C02D4F871
:103F6000D412D5F8040204EB8101D1F8C412CA6856
:103F700005F503719047002070BD032070BD00005F
:103F800070B50446224D2046297800F0ECFC2878D4
:103F9000002600F00F0000EB800004EB8000868418
:103FA0006978204600F0DFFC687800F00F0000EB35
:103FB000800004EB8000A0F86461A978204600F03E
:103FC000D2FCA87800F00F0000EB800004EB80002A
:103FD0008684C684D4F8D40204EB8000D0F8C012E2
:103FE00099B1D0F8C40240688047D4F8D40204EBF9
:103FF0008000D0F8C00201F060F9D4F8D40204EBDC
:104000008000C0F8C062C4F8BC62002070BD00002F
:104010007800002010B5D0F8D41200EB8100D0F861
:10402000C042002C10D0D0F8C41259B194F800024C
:10403000FF2807D08B6894F8012221469847FF207B
:1040400084F80002002010BD032010BD0A21018069
:10405000004870477C00002070B5064682210C485D
:1040600000F0E4FB05460121094800F0DFFB0446AF
:104070008121074800F0DAFB0DB11021A971402120
:1040800004B1A18000B1818043203080004870BD20
:104090008800002070B5064682210D4800F0C6FB5E
:1040A000054601210A4800F0C1FB04468121084869
:1040B00000F0BCFB0DB11021A9714FF4007104B1E7
:1040C000A18000B1818043203080014870BD000094
:1040D0008800002070B5064682210C4800F0A6FB3F
:1040E00005460121094800F0A1FB0446812107484B
:1040F00000F09CFB0DB11021A971402104B1A180F9
:1041000000B1818043203080004870BD88000020CD
:104110002DE9F04704464FF4077001F0CFF805464B
:104120004FF00008002D63D04FF407712846FCF7CC
:10413000DDF9D4F8D40204EB8000C0F8C052C4F812
:10414000BC52207C0127494E4FF01009002858D05E
:10415000402302223178204600F067FD307800F0DD
:104160000F0000EB800004EB8000878440230222D4
:104170007178204600F059FD707800F00F0000EBD8
:10418000800004EB8000A0F86471B07800F00F00AC
:1041900000EB800004EB8000A0F8269008230322A7
:1041A000B178204600F041FDB07800F00F0000EB40
:1041B000800004EB80008784C5F80482D4F8D40220
:1041C00004EB8000D0F8C40200688047C5F8148270
:1041D000C5F81882D5F80422002A3CD0207CC8B348
:1041E00040237178204600F02CFD0020BDE8F087C8
:1041F000D4F8D40204EB8000C0F8C0820220BDE8ED
:10420000F0874FF4007302223178204600F00DFD54
:10421000307800F00F0000EB800004EB8000878412
:104220004FF4007302227178204600F0FEFC707893
:1042300000F00F0000EB800004EB8000A0F8647138
:10424000B07800F00F0000EB800004EB8000A0F8D5
:104250002690A3E702E00220BDE8F0874FF4007348
:104260007178204600F0EDFCBFE7000078000020E8
:1042700010B5D0F8D41200EB8101D1F8C01200299A
:104280000CD0027CDFF82CC052B1D1F804224023BC
:104290009CF8011000F0D5FC002010BD032010BDDB
:1042A000D1F804224FF400739CF8011000F0C9FC0F
:1042B000F2E7000078000020002907D0D0F8D422CF
:1042C00000EB8200C0F8C412002070470320704742
:1042D000D0F8D42200EB8200D0F8C002002803D02E
:1042E000C0F804120020704703207047D0F8D43281
:1042F00000EB8300D0F8C002002805D0C0F80812F7
:10430000C0F810220020704703207047F0B583B03A
:1043100006460C46D6F8D40206EB8000D0F8C072F0
:104320000021029101910025002F0DD0217811F07C
:1043300060023BD0202A0AD02146304600F0C9F85E
:10434000032503B02846F0BD03B00320F0BDE2888A
:1043500012B311F0800F10D0D0F8C40294F801C04D
:104360003946836860469847E288072A00D90722C1
:104370003946304600F0D3F8E3E7607887F800026A
:10438000E088402800D34020C2B287F80122394695
:10439000304600F0AAF8D4E7D0F8C40294F801C07F
:1043A00000228368214660469847CAE7607858B182
:1043B0000128C6D00A2817D00B2825D02146304620
:1043C00000F087F80325BCE796F89C02032805D087
:1043D0002146304600F07DF80325B2E7022201A90C
:1043E000304600F09CF8ACE796F89C02032805D014
:1043F0002146304600F06DF80325A2E7012202A90C
:10440000304600F08CF89CE796F89C02032898D080
:104410002146304600F05DF8032592E710B5D0F84C
:10442000D41200EB8101D1F8C0220121002A03D06F
:10443000D2F8143213B117E0032010BD0121C2F8E5
:1044400014120A49D2F810C2097801F00F0303EBE5
:10445000830300EB8303C3F818C0D2F81032D2F8FC
:10446000082200F097FC0021084610BD78000020CB
:1044700010B50024D0F8B8225268904700B1032448
:10448000204610BD90F89C22012A05D0022A03D0B4
:10449000032A01D000F01DB84988012904D1002168
:1044A000C0F8A41200F048B8704700207047002000
:1044B000704710B513460A46002100F0C2FB0020E9
:1044C00010BD10B513460A46002100F063FC002021
:1044D00010BD10B504468021204600F040FC204667
:1044E000BDE81040002100F03ABC10B50323C0F82D
:1044F0009432C0F85821C0F85C2113460A460021C6
:1045000000F09FFB002010BD10B50521C0F89412EB
:1045100000231A46194600F094FB002010BD10B588
:104520000223C0F894328261C26113460A46002118
:1045300000F030FC002010BD10B50421C0F894122A
:1045400000231A46194600F025FC002010BD00008B
:1045500010B5002806D00A46054906A000F0B2F9B9
:10456000034810BD0A46024902A000F0ABF9F7E784
:10457000C804002043444320436F6E66696700000F
:1045800012200880004870473000002010B5002835
:1045900006D00A46054906A000F094F9034810BD6C
:1045A0000A46024902A000F08DF9F7E7C80400208E
:1045B00043444320496E7465726661636500000080
:1045C00004200880004870472C00002010B50A46DF
:1045D000024903A000F076F9004810BDC80400208D
:1045E00053544D6963726F656C656374726F6E6965
:1045F0006373000010B5002806D00A46054906A0DE
:1046000000F060F9034810BD0A46024902A000F01C
:1046100059F9F7E7C804002053544D333220566946
:10462000727475616C20436F6D506F72740000007E
:1046300010B51A200880FDF7F7FB014810BD0000F7
:1046400044000020CA88012A01D0FFF742BF90F839
:104650009C22012A05D0022A03D0032A08D0FFF7A2
:1046600038BF00218160012200F10801FFF757BF28
:104670000122011DFFF753BF2DE9F84304460F4601
:1046800000200090002600257888010A082970D2B1
:10469000DFE801F0AB040C22ABAB8B9AD4F8B41278
:1046A000207C0A68694690470646A3E0207C4FF0CC
:1046B000020840B1D4F8B802C16A68468847064685
:1046C00086F8018096E0D4F8B802816A6846884787
:1046D000064686F801808DE0C0B206285FD2DFE88A
:1046E00000F0031221303F4FD4F8B402426822B1E7
:1046F000207C6946904706467CE039462046FFF715
:10470000E8FE012576E0D4F8B402826822B1207C6C
:104710006946904706466DE039462046FFF7D9FEC8
:10472000012567E0D4F8B402C26822B1207C694652
:10473000904706465EE039462046FFF7CAFE01254F
:1047400058E0D4F8B402026922B1207C694690474F
:1047500006464FE039462046FFF7BBFE012549E0FB
:10476000D4F8B40242692AB1207C694690470646D3
:1047700040E03AE039462046FFF7ABFE012539E03C
:10478000D4F8B402826922B1207C6946904706467B
:1047900030E039462046FFF79CFE01252AE03946E5
:1047A0002046FFF796FE012524E0207C28B13946FB
:1047B0002046FFF78EFE01251CE0D4F8B802416BBD
:1047C00068468847064615E0207C28B139462046D1
:1047D000FFF77FFE01250DE0D4F8B802016B6846B3
:1047E000884706460721717004E039462046FFF7E6
:1047F00070FE0125002D0CD1FA8892B1BDF80000A1
:1048000048B1824200D90246009231462046FFF765
:1048100086FEBDE8F88339462046FFF75AFEBDE81C
:10482000F8832046FFF788FEBDE8F88378B50E468A
:10483000054600246A88297828468A4212D90091C0
:104840008A420FD9694600F01BF84178052904D146
:104850000446A178B14205D000246988BDF8002043
:104860009142EFD8204678BD00210278002A05D079
:10487000491CC9B2401C0278002AF9D10846704789
:104880000A8803781A440A8001780844704790F82F
:104890009C22012A05D0022A03D0032A01D0FFF767
:1048A00018BECA88022A01D0FFF713BE0121C160D9
:1048B000D0F8A41209B10321C160022200F10C0159
:1048C000FFF72DBE70B50D46164600281BD00446D6
:1048D0002046FFF7C9FF022101EB4000308030780D
:1048E0002870032068700222207800280BD0002155
:1048F0002078A854641C501CC0B22954401CC2B279
:1049000020780028F4D170BD01460020002906D08F
:10491000012905D0022905D0032905D003207047BD
:1049200003207047012070470320704700280FD0F4
:104930000023C0F8B832C0F8C432C0F8D03209B190
:10494000C0F8B412012180F89C12027000F000B986
:104950000320704710B5D0F8C802FDF7B2FCBDE8DF
:104960001040FFF7D1BF10B5D0F8C802FDF783FCA7
:10497000BDE81040FFF7C8BF70B504460B4694462B
:10498000002B09D043F080012046FFF78EFDFF2861
:104990005ED000284CD05BE004F11400D4F89412EF
:1049A000002502293BD18268C1688A420CD9521A7B
:1049B000826061462046FFF784FD00231A461946AF
:1049C000204600F03EF92AE0914214D14068884226
:1049D00011D3D4F8981288420DD2002211462046F5
:1049E000FFF76FFDC4F8985200231A461946204677
:1049F00000F027F913E094F89C02032808D1D4F8BA
:104A0000B802C16821B1C4F8D452C16820468847B1
:104A10008021204600F0A3F92046FFF775FD94F8A9
:104A2000A00220B1204600F0F4F984F8A0520FE073
:104A300094F89C1203290BD1D4F8B8124A693AB100
:104A4000C4F8D4024A69194620469047002800D18C
:104A5000002070BD10B504460B4694460022002B82
:104A600009D003F07F012046FFF71FFDFF2857D034
:104A7000002840D054E004F5AA70D4F89412032919
:104A80004ED1C268816891420AD98A1A8260C06890
:104A9000824200D3024661462046FFF70AFD3FE00E
:104AA00094F8AA0210F01F0006D0012806D00228B0
:104AB0000AD0002070B11AE00020FBE794F8AE1293
:104AC0002046FFF7F4FCF5E794F8AE122046FFF716
:104AD000ECFCEFE794F89C12032908D1D4F8B81243
:104AE0000A6922B1C4F8D4020969204688472046E1
:104AF000FFF722FD14E094F89C1203290DD1D4F89D
:104B0000B812D1F818C0BCF1000F06D0C4F8D40216
:104B10008A6919462046904702460AB1104610BDE0
:104B2000002010BD0020704710B50024012180F83E
:104B30009C12D0F8B822002A04D05268017990471C
:104B400000B10324204610BDD0F8C802FDF7E7BB32
:104B500010B50178002928D11549C1F80805C0F819
:104B6000C8124FF0A0400860062048600222CA60C8
:104B7000002008618A61C861086248628862C86270
:104B800008630846FDF758FF08B1FDF74AF9802190
:104B90000748FDF720FB402200210548FDF71FFBD9
:104BA000802201210248FDF71AFB002010BD000001
:104BB000E818002011F0800F01F07F01D0F8C80242
:104BC00001EBC10100EB810002D090F83E0070477C
:104BD00090F87E02704710B5D0F8D42200EB820224
:104BE000D2F8B822002A04D090F89C32032B02D0CD
:104BF00004E0032010BD126A02B19047002010BDEE
:104C000010B5D0F8D42200EB8202D2F8B822002AE4
:104C100004D090F89C32032B02D004E0032010BD96
:104C2000526A02B19047002010BD10B59C46134651
:104C3000D0F8C8026246FDF77BFBBDE81040FFF7E5
:104C400063BE10B5D0F8C802FDF7A2FBBDE8104066
:104C5000FFF75ABE2DE9F04104460025012684F8ED
:104C60009C620020C4F894026060C4F8A40284F836
:104C7000A002D4F8B802002806D0426822B1002170
:104C80002046904700B103250022402311462046CC
:104C9000FFF7CBFFA4F864614027C4F8607140239C
:104CA000002280212046FFF7C0FFA6842762284605
:104CB000BDE8F08190F89C12042903D190F89D1270
:104CC00080F89C120020704710B590F89C120329C0
:104CD00005D1D0F8B81211B1C96901B188470020D7
:104CE00010BD01740020704710B5D0F8C802FDF760
:104CF00088FFBDE81040FFF707BE10B5044604F278
:104D0000AA2000F050F80120C4F89402B4F8B002D0
:104D1000C4F8980294F8AA1211F01F000AD00128D2
:104D20000FD0022814D02046BDE8104001F08001C9
:104D300000F015B804F2AA212046BDE8104000F0AA
:104D400023B904F2AA212046BDE8104000F06EBA53
:104D500004F2AA212046BDE8104000F050B910B579
:104D6000D0F8C802FDF738FBBDE81040FFF7CCBD16
:104D700010B5D0F8C802FDF75FFFBDE81040FFF79F
:104D8000C3BD90F89C1280F89D12042180F89C12FB
:104D90000020704710B5D0F8C802FDF757FBBDE8FA
:104DA0001040FFF7B1BD0A780270491C0A784270C2
:104DB000491C0A784B1C1B7842EA03224280891C5A
:104DC0000A784B1C1B7842EA032282808A78C978D1
:104DD00042EA0121C180704738B5044600200090A6
:104DE000002914D0C4F8B812D4F8D40204EB80001F
:104DF000D0F8B802C16A19B168468847C4F8D00231
:104E0000D4F8D802401CC4F8D802002038BD0320D2
:104E100038BD0020704770B504468888002821D12D
:104E2000C888F8B9488880281CD200F07F0594F81B
:104E30009C0203280DD084F89E5229462046FFF795
:104E400053FF2046FFF778FB45B1022084F89C020F
:104E500070BD2046BDE87040FFF73BBB012084F8E1
:104E60009C0270BD2046BDE87040FFF732BB034690
:104E70000020D3F8B822002A02D012681846104742
:104E8000704700002DE9F04104460F460025334EDF
:104E9000B9783170012906D939462046FFF719FB48
:104EA0000320BDE8F08194F89C024FF0020802282C
:104EB0000DD0032825D039462046FFF70AFB31786C
:104EC0002046FFF7D5FA03252846BDE8F081A1B1B9
:104ED00061602046FFF7CBFF0546280006D0394623
:104EE0002046FFF7F6FA84F89C82EDE72046FFF7AC
:104EF00023FB032084F89C02E6E72046FFF71CFB17
:104F0000E2E7C9B16068884224D0C1B22046FFF709
:104F1000AFFA317861602046FFF7A9FF0546280007
:104F200014D039462046FFF7D4FA21792046FFF7FE
:104F30009FFA84F89C82C7E784F89C8261602046CF
:104F4000FFF796FA2046FFF7F7FABDE72046FFF78E
:104F5000F3FAB9E72046FFF7EFFAB5E7740000204F
:104F60004A88012A03D0022A06D0FFF7B2BA0121EB
:104F7000C0F8A412FFF7E0BA8988090A80F8A012E5
:104F8000FFF7DABAFFF7F4BE10B500240A7812F082
:104F9000600211D0202A05D0402A03D0FFF799FAE9
:104FA000204610BDD0F8D42200EB8202D2F8B822FD
:104FB000926890470446F3E74A780A2A1CD2DFE851
:104FC00002F012181B151B08051B0F0BFFF754FBF3
:104FD000E6E7FFF720FFE3E7FFF754FF0446DFE7CC
:104FE000FFF730FBDCE7FFF752FCD9E7FFF7B8FF2C
:104FF000D6E7FFF747FAD3E7FFF76BFAD0E72DE9DB
:10500000F04105460E4600273479307810F06000F4
:105010001ED0202808D0402806D031462846FFF769
:1050200058FA3846BDE8F08121462846FFF73DFA98
:10503000FF28F6D00028F4D1C5F8D402D5F8B8027C
:105040008268002AEDD03146284690470746E8E7B7
:105050007078002872D0012831D0032804D031465E
:105060002846FFF736FADCE795F89C02022806D0BE
:10507000032815D031462846FFF72BFAD1E754B163
:10508000802C08D021462846FFF769FE802128465B
:10509000FFF765FEC5E731462846FFF71AFAC0E775
:1050A000708840B93CB1802C05D0F08818B92146F1
:1050B0002846FFF754FE2846FFF73EFAB1E795F879
:1050C0009C02022806D0032815D031462846FFF757
:1050D00000FAA6E754B1802C08D021462846FFF7F5
:1050E0003EFE80212846FFF73AFE9AE731462846E1
:1050F000FFF7EFF995E77088002892D114F07F0F41
:1051000003D021462846FFF725FC2846FFF714FA6E
:1051100021462846FFF7C9F9FF2882D0002880D110
:10512000C5F8D402D5F8B8028268002A3FF479AFF6
:10513000314628469047074673E7FFE795F89C02FB
:105140004FF00008022806D0032827D03146284611
:10515000FFF7BFF965E734B1802C04D0314628460B
:10516000FFF7B7F95DE714F0800F08D004F07F0077
:1051700000EB800005EB800000F1140107E004F073
:105180007F0000EB800005EB800000F5AA71C1F8FC
:10519000008002222846FFF7C2F942E714F0800F90
:1051A0000CD004F00F0000EB800005EB8000808C39
:1051B00068B931462846FFF78CF932E704F00F0052
:1051C00000EB800005EB8000B0F8640158B114F0EA
:1051D000800F0DD004F07F0000EB800005EB800015
:1051E00000F114060CE031462846FFF772F918E783
:1051F00004F07F0000EB800005EB800000F5AA764C
:105200004CB1802C07D021462846FFF7D3FC28B1AB
:105210000120306004E0C6F8008001E0C6F800809C
:10522000022231462846FFF77AF9FAE670B50546BC
:105230000E460024307810F0600009D0202807D0F6
:10524000402805D031462846FFF743F9204670BD77
:1052500095F89C02012808D0022806D0032804D023
:1052600031462846FFF735F9F0E7B088C1B2012989
:105270001ED8C1B22846FFF71AF9FF2800D048B15E
:105280000324F0880028E1D1002CDFD12846FFF765
:1052900053F9DBE7D5F8B8128A683AB1C5F8D402F9
:1052A0008A683146284690470446EAE70324E8E73F
:1052B00031462846FFF70DF9C8E7704700487047A8
:1052C000C816002070B50A78012302F00F054E7849
:1052D000AB401B4CD0F81C58012E17D045EA0343B5
:1052E000C0F81C3800EB4210D0F8002B12040BD48D
:1052F000D0F8002B8B890979C3F30A031A4344EAD7
:1053000081410A43C0F8002B002070BD9BB21D43B1
:10531000C0F81C5800EB4210D0F800391B04F3D43D
:10532000D0F800398D890979C5F30A0589042B4322
:1053300041EA82510B432343C0F80039E4E70000FF
:1053400000800010D0F800196FF30A01C0F80019AE
:10535000D0F8041841F48071C0F804180020704798
:1053600070B5044606990A9E049D0D98012916D031
:10537000E06840F04000E060204600F02BF8A16BB0
:105380001EB321F48031A163012D07D1A16841F042
:105390000601A160A16841F02001A16070BDA16B70
:1053A00021F48031A163E168094A1140E160E168BC
:1053B00021F44011E160012803D1E06840F480103D
:1053C000E060204600F006F8DEE741F48031DAE7DD
:1053D000BFFFBDFF08B500220D490092009B5B1C7A
:1053E00000938B420CD80369002BF7DA0092026914
:1053F00042F001020261009A521C00928A4201D9D5
:10540000032008BD0269D207F5D1002008BD0000C5
:10541000400D030030B54C780A78012300EB4212AE
:10542000012C2CD0D2F8004B002C0BDAD2F8004B18
:1054300044F00064C2F8004BD2F8004B44F08044C2
:10544000C2F8004BD0F83C580C7804F00F0403FA73
:1054500004F425EA0444C0F83C48D0F81C48097814
:1054600001F00F018B4024EA0341C0F81C18D2F868
:10547000000B19490840C2F8000B002030BDD2F8DB
:105480000049002C0BDAD2F8004944F00064C2F85D
:105490000049D2F8004944F08044C2F80049D0F8ED
:1054A0003C480D7805F00F0503FA05F5ADB2AC43A5
:1054B000C0F83C48D0F81C48097801F00F018B4037
:1054C00099B28C43C0F81C48D2F80009034908403F
:1054D000C2F80009D1E700000078F3EF007833EC60
:1054E000D0F8001E21F00301C0F8001ED0F8041807
:1054F00021F00201C0F8041800207047D0F8001E07
:1055000021F00301C0F8001ED0F8041841F0020198
:10551000C0F80418002070472DE9F04F00250E4612
:105520000446DDF82CC0DDF824B0109F284629463B
:1055300004EB8002C2F80411401C0F28F8D3204667
:10554000A7B1806B40F40012A26308468846C4F8F5
:10555000000ED4F800182046C4F80018BCF1010F62
:1055600017D0D0F8001841F0030117E0D0F8040874
:1055700040F00202C4F80428A06B20F40012A263D9
:10558000206840F040022260206840F080022260E3
:10559000DBE7D0F800180BB141F00101C0F80018AA
:1055A000102100F0EFFA00B10125204600F0CCFAFE
:1055B00000B101254046C4F81088C4F81488C4F826
:1055C0001C8800214FF000694FF0904A4FF67F335E
:1055D00015E000BF04EB4112D2F800C9BCF1000F86
:1055E00006DA11B1C2F800A904E0C4F8009901E09C
:1055F000C2F80009C2F81009C2F80839491C8E42E5
:10560000E8D8002115E000BF04EB4112D2F800CB2E
:10561000BCF1000F06DA11B1C2F800AB04E0C4F827
:10562000009B01E0C2F8000BC2F8100BC2F8083B67
:10563000491C8E42E8D8D4F8101821F48072C4F8BE
:105640001028A0616FF080406061BBF1000F03D1B2
:10565000A06940F01000A061A06909490843A06159
:105660000C9818B1A06940F00800A061012F03D187
:10567000A06904490843A0612846BDE8F08F0000F6
:1056800000383C8004000040816821F00101816005
:105690000020704770B50D784E78444CEBB200EBAB
:1056A0004313012E21D0D3F8100B6FF31200C3F86F
:1056B000100BD3F8100B2040C3F8100B886908B109
:1056C000C8688861C868C861D3F8100B40F400202E
:1056D000C3F8100BD3F8100BCC69C4F312042043A9
:1056E000C3F8100B012A55D058E08E69002ED3F86C
:1056F000106932D06FF31206C3F81069D3F810693D
:105700002640C3F810698E69CC68A64200D98C6126
:10571000D3F8104944F40024C3F81049D3F81049D1
:105720008E69C6F312063443C3F81049012A22D009
:1057300000EB4512D2F8003943F00443C2F80039B7
:105740008A6932B3D0F83428097801F00F030121B7
:1057500099400A43C0F8342826E02640C3F810696F
:10576000D3F8104944F40024C3F81049D3F8104981
:105770006FF31204D8E7496919B100EB4512C2F87A
:10578000141900EB4510D0F8001941F00441C0F89D
:10579000001909E0086908B1C3F8140BD3F8000B2D
:1057A00040F00440C3F8000B002070BDFFFF07E08D
:1057B00010B5036C134CA34203D9D0F8003B002B67
:1057C0001EDB0023C0F8103BD0F8103B43F400234D
:1057D000C0F8103BD0F8103B43F01803C0F8103B62
:1057E000D0F8103B43F0C043C0F8103B012907D16B
:1057F000C0F8142BD0F8001B41F08021C0F8001B2A
:10580000002010BD0A30544F4A780B78012A00EB73
:1058100043100BD0D0F8002B22F40012C0F8002B5C
:105820000979032914D0022912D017E0D0F80029F1
:1058300022F40012C0F800290979032901D00229B5
:105840000CD1D0F8001941F08051C0F8001905E0E2
:10585000D0F8001B41F08051C0F8001B00207047B9
:105860000A784B78D1B200EB4110012B12D0D0F85E
:10587000001B002906DB2AB1D0F8001B21F0804173
:10588000C0F8001BD0F8001B41F40011C0F8001B49
:1058900000207047D0F80019002906DB2AB1D0F8A3
:1058A000001921F08041C0F80019D0F8001941F426
:1058B0000011C0F80019EBE7F8B50C784F78764D79
:1058C000E3B26FF0604600EB4313012F27D0D3F80B
:1058D000104B6FF31204C3F8104BD3F8104B2C404D
:1058E000C3F8104B8D69002D75D0CC6825446D1E12
:1058F000B5FBF4F5ADB26C43CC61D3F8104B06EABE
:10590000C5452C43C3F8104BD3F8104BCD69C5F3F4
:1059100012052C43C3F8104B012A71D0A4E08F6903
:105920001FB3D3F810796FF31207C3F81079D3F8C7
:1059300010792F40C3F810798F69CD682F447F1EEE
:10594000B7FBF5F506EAC545D3F810693543C3F84A
:105950001059D3F810598E69C6F312063543C3F8AF
:1059600010590D79012D10D01BE0D3F810692E408D
:10597000C3F81069D3F8105945F40025C3F810593D
:10598000D3F810596FF3120509E0D3F8105925F038
:10599000C045C3F81059D3F8105945F00055C3F865
:1059A0001059012A18D000EB4413D3F8004944F0F1
:1059B0000444C3F800490C79012C2FD08A6962B3E2
:1059C000D0F83428097801F00F03012199400A43E7
:1059D000C0F834285EE036E04A691AB100EB44139F
:1059E000C3F81429097901290FD1D0F80818C9057D
:1059F00000EB4411D1F8002903D442F0005202E038
:105A00002EE042F08052C1F8002900EB4410D0F89B
:105A1000001941F00441C0F800193BE0D0F80848F3
:105A2000E405D3F8004902D444F0005401E044F006
:105A30008054C3F8004900920A8B93B20A7809692E
:105A400000F0D0F926E0D3F8104BCD68C5F312056D
:105A50002C43C3F8104BD3F8104B44F4002459E7FF
:105A60000A690AB1C3F8142B097901290CD1D0F8BD
:105A70000808C005D3F8000B02D440F0005001E044
:105A800040F08050C3F8000BD3F8000B40F0044006
:105A9000C3F8000B0020F8BDFFFF07E038B5002277
:105AA000009213464D780A7842F2107400EB4212CD
:105AB000012D19D0D2F8005B002D3CDAD2F8005B42
:105AC00045F00065C2F8005B0A7800EB4212D2F89C
:105AD000005B45F08045C2F8005B009A521C0092C2
